:100000000C94B1000C948E010C94CE000C94CE0094
:100010000C94CE000C94CE000C94CE000C94CE0028
:100020000C94CE000C94CE000C94CE000C942301C2
:100030000C94CE000C94CE000C94CE000C94CE0008
:100040000C94CE000C94CE000C94CE000C94CE00F8
:100050000C94CE000C94CE000C94CE000C94CE00E8
:100060000C94CE000C94CE0000407A10F35A00A0FD
:10007000724E18090010A5D4E80000E87648170071
:1000800000E40B54020000CA9A3B000000E1F505B1
:10009000000080969800000040420F000000A086FB
:1000A00001000000102700000000E803000000002D
:1000B0006400000000000A000000000001000000D1
:1000C00000002C76D888DC674F0823DFC1DFAE59EB
:1000D000E1B1B796E5E3E453C63AE651997696E87E
:1000E000E6C28426EB898C9B62ED407C6FFCEFBC02
:1000F0009C9F40F2BAA56FA5F490055A2AF75C932D
:100100006B6CF9676DC11BFCE0E40D47FEF520E662
:10011000B500D0ED902E0300943577050080841E45
:10012000080000204E0A000000C80C333333330FA0
:10013000986E12831141EF8D2114893BE65516CF3D
:10014000FEE6DB18D1844B381BF77C1D901DA4BB49
:10015000E424203284725E228100C9F124ECA1E5FE
:100160003D2711241FBECFEFD8E0DEBFCDBF11E089
:10017000A0E0B1E0E6EFF1E102C005900D92AC30F5
:10018000B107D9F721E0ACE0B1E001C01D92A83180
:10019000B207E1F70E94C2010C94F9080C94000028
:1001A000CF93DF930E942702EC0185E290E09983D0
:1001B000888322E02A839C838B8321E02D839F8385
:1001C0008E8325E028879A87898723E02B879D8760
:1001D0008C8784E08E87E9E6F0E08081826080830E
:1001E000E89ACE010E949902CE01DF91CF91089545
:1001F000E1E8F0E0808188608083AFE6B0E08C9138
:1002000082608C938C9181608C9388E09DE39093C5
:10021000890080938800808183608083089517B867
:1002200081E080937E00ECE7F0E0108280818064C2
:10023000808380818062808387E880937A00109237
:100240007B00789408951F920F920FB60F9211249D
:10025000EF92FF920F931F932F933F934F935F93D0
:100260006F937F938F939F93AF93BF93EF93FF937E
:10027000CF93DF93CDB7DEB72697DEBFCDBF81E04A
:1002800080930C01B09AEAE7F0E08081806480837B
:10029000808184FFFDCF6091790070E080E090E084
:1002A0000E94560420E030E040EA50E40E949104AD
:1002B00020E030E040E85BE30E94910420E030E081
:1002C00048EC52E40E9491049E012F5F3F4F790158
:1002D000890120E043E00E944F05F0920F01E09277
:1002E0000E0126960FB6F894DEBF0FBECDBFDF918C
:1002F000CF91FF91EF91BF91AF919F918F917F919E
:100300006F915F914F913F912F911F910F91FF90AE
:10031000EF900F900FBE0F901F9018951F920F92A5
:100320000FB60F9211248F9381E080930D018F916E
:100330000F900FBE0F901F901895FC019C012D5F30
:100340003F4FA6ECB0E081918C9383EC99E001974C
:10035000F1F700C00000E217F307A9F70895109223
:10036000C50087E68093C400E1ECF0E080818861FD
:100370008083808180688083E2ECF0E08081866009
:1003800080830895CF93DF93CDB7DEB7A8970FB6DC
:10039000F894DEBF0FBECDBF85E0E6E0F1E0DE0100
:1003A000119601900D928A95E1F70E940F010E942B
:1003B000F8000E94AF010E94D0008C01D12CCC2407
:1003C000C3947E0188E0E80EF11C80910D01882322
:1003D00051F010920D01C8010E940104892B19F0FF
:1003E000C8010E947E0280910C01882371F3109253
:1003F0000C01DC2469F0E0910E01F0910F01808185
:100400009181D70111969C938E93828112968C9341
:10041000F70101900020E9F7EE19E8A7C7010E9453
:100420009D01AE014A5F5F4FBE016F5F7F4FC80104
:100430000E949103CACFFC01A62FB72F9C012B5F0E
:100440003F4F91919D93E217F307D9F7089580E10B
:1004500090E00E946F0520E1FC0111922A95E9F7D6
:100460000895CF93DF93EC01DA01E881F98150819F
:1004700081E090E00A8002C0880F991F0A94E2F799
:100480008095852380836EBD0DB407FEFDCF8EB5AC
:100490008F872115310579F0FD012A0F3B1FDF0100
:1004A00090819EBD0DB407FEFDCF9EB59C93319605
:1004B000E217F307A1F7E881F981208181E090E05C
:1004C0000A8002C0880F991F0A94E2F7822B80836A
:1004D0008F85DF91CF91089560620E943102089567
:1004E0000E943102089520E030E040E050E06FEFDC
:1004F0000E94310208950E947302089520E030E0C6
:1005000040E050E061EE0E9431020895CF93DF9306
:100510001F92CDB7DEB720E7298321E030E0AE019E
:100520004F5F5F4F67E00E946C020F90DF91CF91A9
:100530000895FF920F931F93CF93DF931F92CDB730
:10054000DEB78C01DC01ED91FC911197429181E0C5
:1005500090E09C0112960C90129702C0220F331F5C
:100560000A94E2F7242B20831396ED91FC911497C3
:1005700042919C0115960C90159702C0220F331FD3
:100580000A94E2F7242B2083ED91FC91119740818E
:100590009C0112960C90129702C0220F331F0A94EE
:1005A000E2F7242B20831396ED91FC911497308170
:1005B000AC0115960C90159702C0440F551F0A9474
:1005C000E2F7242F2095232320832CB520612CBD16
:1005D0002CB520642CBD1696ED91FC911797429195
:1005E0009C0118960C90189702C0220F331F0A9492
:1005F000E2F7242B20831996ED91FC911A974291F2
:100600009C011B960C901B9702C0220F331F0A946B
:10061000E2F7242B20831C96ED91FC911D972291EB
:100620001E960C9002C0880F991F0A94E2F78095DD
:10063000822380838CB5877F8CBD8CB58B7F8CBDEE
:100640008CB58E7F8CBD8CB58D7F8CBD8DB581605A
:100650008DBD8CB58F7D8CBD20E030E040E050E05A
:1006600062EEC8010E94310220E030E040E050E03C
:1006700061EEC8010E943102C8010E9486028FE02B
:10068000898321E030E0AE014F5F5F4F60E0C80139
:100690000E946C020F2EFFE3FF2EF02DF98221E065
:1006A00030E0AE014F5F5F4F61E0C8010E946C0215
:1006B000F98221E030E0AE014F5F5F4F6CE1C8018D
:1006C0000E946C0284E0898321E030E0AE014F5F3C
:1006D0005F4F6DE1C8010E946C02198221E030E099
:1006E000AE014F5F5F4F62E0C8010E946C020F9045
:1006F000DF91CF911F910F91FF900895CF93DF93DA
:100700001F92CDB7DEB720E3298321E030E0AE01B0
:100710004F5F5F4F67E00E946C020F90DF91CF91B7
:100720000895CF92DF92EF92FF920F931F93CF9392
:10073000DF9300D000D000D0CDB7DEB78C016B01C5
:100740007A010E947E03BE016F5F7F4FC6010E9447
:100750001B0225E030E0AE014F5F5F4F60E1C80152
:100760000E946C02BE016F5F7F4FC6010E941B0298
:1007700025E030E0AE014F5F5F4F6AE0C8010E94A4
:100780006C02D70192962C9130E0A7014E5F5F4F2B
:1007900060EAC8010E94310221E030E0AE014A5F08
:1007A0005F4F60E0C8010E9470028E818E7F8E8351
:1007B00021E030E0AE014A5F5F4F60E0C8010E9477
:1007C0006C02D8011396ED91FC911497208181E081
:1007D00090E015960C9002C0880F991F0A94E2F7DA
:1007E000822B808326960FB6F894DEBF0FBECDBF56
:1007F000DF91CF911F910F91FF90EF90DF90CF90FD
:100800000895EF92FF920F931F93CF93DF931F9260
:10081000CDB7DEB78C01DC011396ED91FC911497F6
:10082000208181E090E015960C9002C0880F991FFE
:100830000A94E2F7809582238083C8010E947B029C
:10084000F801878585FD09C084FD0AC00F2EFEEFE3
:10085000EF2EFF24FA94F02D06C0E12CF12C03C0FA
:10086000EE24EA94FE2CC8010E947E0321E030E0D1
:10087000AE014F5F5F4F60E0C8010E947002898146
:100880008160898321E030E0AE014F5F5F4F60E01F
:10089000C8010E946C02C7010F90DF91CF911F9198
:1008A0000F91FF90EF900895E89409C097FB3EF4F4
:1008B00090958095709561957F4F8F4F9F4F9923AD
:1008C000A9F0F92F96E9BB279395F695879577952B
:1008D0006795B795F111F8CFFAF4BB0F11F460FFEB
:1008E0001BC06F5F7F4F8F4F9F4F16C0882311F043
:1008F00096E911C0772321F09EE8872F762F05C057
:10090000662371F096E8862F70E060E02AF09A95F1
:10091000660F771F881FDAF7880F9695879597F9E6
:1009200008950E94A4040C9415050E94070538F050
:100930000E940E0520F0952311F00C94FE040C94F7
:10094000040511240C9449050E94260570F3959F17
:10095000C1F3950F50E0551F629FF001729FBB27B6
:10096000F00DB11D639FAA27F00DB11DAA1F649F52
:100970006627B00DA11D661F829F2227B00DA11D05
:10098000621F739FB00DA11D621F839FA00D611D8B
:10099000221F749F3327A00D611D231F849F600DAC
:1009A000211D822F762F6A2F11249F5750409AF0D5
:1009B000F1F088234AF0EE0FFF1FBB1F661F771F61
:1009C000881F91505040A9F79E3F510580F00C942C
:1009D000FE040C9449055F3FE4F3983ED4F38695FA
:1009E00077956795B795F795E7959F5FC1F7FE2BCC
:1009F000880F911D9695879597F9089597F99F67A8
:100A000080E870E060E008959FEF80EC0895002496
:100A10000A941616170618060906089500240A9463
:100A200012161306140605060895092E0394000CE9
:100A300011F4882352F0BB0F40F4BF2B11F460FF78
:100A400004C06F5F7F4F8F4F9F4F089557FD9058A1
:100A5000440F551F59F05F3F71F04795880F97FB82
:100A6000991F61F09F3F79F087950895121613063C
:100A70001406551FF2CF4695F1DF08C0161617066B
:100A80001806991FF1CF86957105610508940895A0
:100A9000E894BB2766277727CB0197F90895EF9253
:100AA0000F931F93CF93DF93E80147FD02C034E01B
:100AB00001C034E1042E000C550B57FF03C05195C3
:100AC00041955109E32E022F242FAE010E9490067A
:100AD000CE01DF91CF911F910F91EF9008950F9369
:100AE0001F93CF93DF938230910510F482E090E062
:100AF000E0911601F091170120E030E0A0E0B0E0B5
:100B0000309719F1408151810281138148175907AB
:100B1000C8F08417950769F4109731F012960C937A
:100B2000129713961C9327C0009316011093170178
:100B300022C02115310519F04217530718F49A0104
:100B4000BD01EF01DF01F801DBCF21153105F9F01F
:100B5000281B390B2430310580F48A819B81611573
:100B6000710521F0FB019383828304C090931701E8
:100B700080931601FE01329644C0FE01E20FF31F7E
:100B80008193919322503109398328833AC020916F
:100B9000140130911501232B41F420910201309171
:100BA000030130931501209314012091000130912D
:100BB00001012115310541F42DB73EB740910401E3
:100BC00050910501241B350BE0911401F0911501A2
:100BD000E217F307A0F42E1B3F0B2817390778F014
:100BE000AC014E5F5F4F2417350748F04E0F5F1F73
:100BF00050931501409314018193919302C0E0E05A
:100C0000F0E0CF01DF91CF911F910F910895CF9325
:100C1000DF93009709F481C0FC013297138212829E
:100C2000A0911601B0911701109781F420813181B4
:100C3000820F931F20911401309115012817390755
:100C400051F5F0931501E093140167C0ED0120E028
:100C500030E0CE17DF0740F44A815B819E014115E9
:100C60005105F1F0EA01F5CFD383C2834081518170
:100C7000840F951FC817D90759F488819981840F6B
:100C8000951F0296918380838A819B8193838283BF
:100C90002115310529F4F0931701E09316013DC0A9
:100CA000E901FB83EA8349915991C40FD51FEC17E1
:100CB000FD0761F480819181840F951F0296E901FF
:100CC00099838883828193819B838A83E0E0F0E02B
:100CD00012968D919C911397009719F0FD01DC01FC
:100CE000F7CF8D919C9111979D012E5F3F4F820F01
:100CF000931F20911401309115012817390769F4C9
:100D0000309729F4109217011092160102C0138235
:100D10001282B0931501A0931401DF91CF91089531
:100D2000A9E0B0E0E6E9F6E00C94C8086A01122FE9
:100D3000B02E2BE3201720F0FF24F394F00E02C016
:100D40002CE3F22E0F2D27E0AE014F5F5F4F0E9484
:100D5000EA07BC014981842F8970813031F0E1FCC0
:100D600006C0E0FE06C090E205C09DE203C09BE223
:100D700001C090E05E2D507143FF3CC0911102C054
:100D800083E001C084E0811718F4212F281B01C0E3
:100D900020E051110BC0F601822F30E2882319F0B8
:100DA00031938150FBCFC20ED11C20E0992329F052
:100DB000D6019C93F60131966F01C6010396E2FEBF
:100DC0000AC03EE4D6013C9341E411964C9311973E
:100DD00012963C9306C03EE6F601308341E641831D
:100DE0003283FC01322F40E2332309F442C04193A5
:100DF0003150FACF42FF44C0911102C083E001C0DC
:100E000084E0811718F4212F281B01C020E0511124
:100E10000BC0F601822F30E2882319F03193815004
:100E2000FBCFC20ED11C20E0992329F0D6019C9360
:100E3000F60131966F01C6010396E2FE0BC039E45C
:100E4000D6013C933EE411963C93119736E41296FA
:100E50003C9307C039E6F60130833EE6318336E63F
:100E60003283FC01322F40E2332319F04193315099
:100E7000FBCFFC01E20FF11D10828EEF9FEFA6C0A9
:100E800021E030E0911102C020E030E01616170694
:100E90001CF4FB01319602C0E1E0F0E02E0F3F1F91
:100EA000BB2021F0EB2DF0E0319602C0E0E0F0E055
:100EB0002E0F3F1FE12FF0E02E173F071CF4121BEF
:100EC000212F01C020E08E2D887159F4F601822F68
:100ED00030E2882319F031938150FBCFC20ED11C30
:100EE00020E0992329F0D6019C93F60131966F01F9
:100EF00051110BC0F601822F90E3882319F09193D2
:100F00008150FBCFC20ED11C20E00F2D060F9A811D
:100F1000342F307144FF03C0913309F4015010168F
:100F200024F4093018F008E001C001E0AB0177FFBC
:100F300002C040E050E0FB01E41BF50BA1E0B0E093
:100F4000AC0FBD1FEA0FFB1F8EE2A82E4B01801ACB
:100F500091080B2D10E01195019511094F3FBFEF3E
:100F60005B0721F4D601AC9211966D0164177507E9
:100F70002CF08416950614F4818101C080E3415061
:100F800051093196D60111967D014017510724F081
:100F9000D6018C936701E2CF6417750739F4963355
:100FA00020F4953319F4311101C081E3F6018083F7
:100FB000F701822F90E2882319F091938150FBCFA3
:100FC000F701E20FF11D108280E090E02996ECE03D
:100FD0000C94E408283008F027E03327DA01990F51
:100FE000311D87FD916000966105710539F432600D
:100FF0002E5F3D9330E32A95E1F708959F3F30F04F
:1010000080387105610509F03C5F3C5F3D9391308C
:1010100008F08068911DDF93CF931F930F93FF9289
:10102000EF92192F987F9695E92F96959695E90F4F
:10103000FF27EE53FF4F99273327EE24FF24A70104
:10104000E70105900894079428F4360FE71EF81E70
:10105000491F511D660F771F881F991F0694A1F71E
:101060000590079428F4E70EF81E491F561FC11D6E
:10107000770F881F991F661F0694A1F705900794A4
:1010800028F4F80E491F561FC71FD11D880F991F3E
:10109000661F771F0694A1F70590079420F4490F67
:1010A000561FC71FD81F990F661F771F881F0694EA
:1010B000A9F784911095177041F0D695C79557956B
:1010C0004795F794E7941A95C1F7E8E6F0E068943D
:1010D0001590159135916591959105907FE27395E5
:1010E000E118F10A430B560BC90BD009C0F7E10C0C
:1010F000F11E431F561FC91FD01D7EF4703311F41B
:101100008A95E6CFE894015030F0080F0AF40027E2
:10111000021708F4202F2395022F7A3328F079E361
:101120007D932A95E9F710C07D932A9589F6069458
:1011300097956795379517951794E118F10A430B22
:10114000560BC90BD00998F023957E9173957A338D
:1011500008F070E37C932013B8F77E9170617D9363
:1011600030F0839571E37D9370E32A95E1F71124C4
:10117000EF90FF900F911F91CF91DF91992787FDFD
:10118000909508952F923F924F925F926F927F9227
:101190008F929F92AF92BF92CF92DF92EF92FF9287
:1011A0000F931F93CF93DF93CDB7DEB7CA1BDB0B33
:1011B0000FB6F894DEBF0FBECDBF09942A883988D8
:1011C00048885F846E847D848C849B84AA84B984DF
:1011D000C884DF80EE80FD800C811B81AA81B981EB
:1011E000CE0FD11D0FB6F894DEBF0FBECDBFED01FF
:0611F0000895F894FFCF02
:0C11F6000000180120007878787878005C
:00000001FF
