S0140000646134543367616C766567312E73726563E9
S11300000C9434000C9446000C9446000C94460066
S11300100C9446000C9446000C9446000C94460044
S11300200C9446000C9446000C9446000C94460034
S11300300C9446000C9446000C9446000C94460024
S11300400C9446000C9446000C9446000C94460014
S11300500C9446000C9446000C9446000C94460004
S11300600C9446000C94460011241FBECFEFD8E038
S1130070DEBFCDBF21E0A0E0B1E001C01D92A230FF
S1130080B207E1F70E9472000C94B9000C940000CE
S1130090E0E8F0E0808182688083E1E8F0E080813C
S11300A08A6180838FE097E2909387008093860033
S11300B0089517B881E080937E00ECE7F0E01082A9
S11300C0808180648083EAE7F0E0808180688083B7
S11300D080818760808380818064808310927B002C
S11300E07894089582E084B90E9448000E945900DF
S11300F0EAE7F0E048E750E0C8E8D0E080818064B7
S11301008083808184FFFDCFDA018D919C9193706F
S11301109C01220F331F280F391F220F331F220F78
S1130120331F220F331FADECBCEC0E94AA0096953E
S113013087959695879596958795805E9C4F909325
S11301400101809300018091000190910101998344
S11301508883D4CFA29FB001B39FC001A39F700D29
S1130160811D1124911DB29F700D811D1124911DBB
S10901700895F894FFCF8E
S9030000FC
