:100000000C9434000C947A010C9451000C9451001F
:100010000C9451000C9451000C9451000C9451001C
:100020000C9451000C9451000C9451000C9451000C
:100030000C9451000C9451000C9451000C945100FC
:100040000C9451000C9451000C9451000C945100EC
:100050000C9451000C9451000C9451000C945100DC
:100060000C9451000C94510011241FBECFEFD8E026
:10007000DEBFCDBF11E0A0E0B1E0EAECF9E002C0E4
:1000800005900D92AA33B107D9F721E0AAE3B1E0B8
:1000900001C01D92AF33B207E1F70E94BB000C9480
:1000A000E3040C9400001092C50083E38093C40025
:1000B000E1ECF0E0808188618083808180688083CA
:1000C000E2ECF0E08081866080830895FC019081FD
:1000D000992381F03196A6ECB0E09C932FEF89EF45
:1000E00090E0215080409040E1F700C000009191E5
:1000F0009111F3CF0895CF93DF930E949501EC0106
:1001000085E290E09983888322E02A839C838B8315
:1001100021E02D839F838E8325E028879A87898716
:1001200023E02B879D878C8784E08E87E9E6F0E0CB
:10013000808182608083E89ACE010E948502CE0190
:10014000DF91CF910895CF93DF93EC016BE071E0E5
:100150000E94DA04892B11F4289A0AC06EE071E03B
:10016000CE010E94DA04892B19F485B1817085B91A
:10017000DF91CF910895CF93DF93CDB7DEB7C55907
:10018000D1090FB6F894DEBF0FBECDBF0E94530059
:1001900085E0E6E0F1E0DE01119601900D928A958E
:1001A000E1F7209A289878940E947B007C010E94B5
:1001B0007B003C01AE014F5F5F4F60E070E0C70124
:1001C0000E94EC01AE014F5F5F4F61E070E0C30140
:1001D0000E94EC0121E030E0AE014A5F5F4F60E039
:1001E000C7010E94DE0121E030E0AE01455F5F4FB4
:1001F00060E0C3010E94DE0110E0CE018D5A9F4FE6
:1002000022242394312C482E592E9C012E5F3F4FDF
:100210006901285F3F4F4901285F3F4F5901809195
:100220003A018823E1F310923A0101E03FC0288AA5
:10023000398A642D752DC7010E948003BE01605F5D
:100240007F4FC3010E948003C6010E94A3001027B4
:1002500069F182E191E00E9466008EE191E00E94E6
:10026000660081E291E00E946600C6010E9466007D
:100270008EE191E00E94660089E291E00E946600B2
:10028000C4010E9466008EE191E00E94660081E355
:1002900091E00E946600C5010E9466008EE191E037
:1002A0000E9466008EE191E00E946600C7010E94F4
:1002B0005302882329F0C3010E9453028111B7CF52
:1002C000AE014F5F5F4F60E070E0C7010E94EC013C
:1002D0003FE789EA93E0315080409040E1F700C069
:1002E0000000AE014F5F5F4F61E070E0C3010E940C
:1002F000EC0195CF1F920F920FB60F9211248F939E
:1003000081E080933A018F910F900FBE0F901F9064
:100310001895FC01A62FB72F9C012B5F3F4F9191A1
:100320009D93E217F307D9F7089580E190E00E94CA
:10033000B90320E1FC0111922A95E9F70895CF93C2
:10034000DF93EC01DA01E881F981508181E090E0EE
:100350000A8002C0880F991F0A94E2F780958523CE
:1003600080836EBD0DB407FEFDCF8EB58F8721153E
:10037000310579F0FD012A0F3B1FDF0190819EBD01
:100380000DB407FEFDCF9EB59C933196E217F3079F
:10039000A1F7E881F981208181E090E00A8002C024
:1003A000880F991F0A94E2F7822B80838F85DF9153
:1003B000CF91089560620E949F0108950E949F015D
:1003C000089520E030E040E050E06FEF0E949F0190
:1003D00008950E94E1010895DF92EF92FF920F933A
:1003E0001F93CF93DF9300D000D000D0CDB7DEB7FE
:1003F0007C01D62ECA01BE016F5F7F4F0E9489012A
:100400006AE06D0D25E030E0AE014F5F5F4FC70140
:100410000E94DA0121E030E0AE014A5F5F4F62E006
:10042000C7010E94DE0101E010E0C80102C0880F90
:10043000991FDA94E2F79E81892B8E8321E030E0C8
:10044000AE014A5F5F4F62E0C7010E94DA01D70147
:100450001396ED91FC911497808115960C9002C033
:10046000000F111F0A94E2F7082B008326960FB69F
:10047000F894DEBF0FBECDBFDF91CF911F910F91DA
:10048000FF90EF90DF900895FC0127852E7030E0FB
:1004900035952795263031051CF4822F932F08952A
:1004A0008FEF9FEF0895CF93DF93EC01EB81FC81F9
:1004B000208181E090E00D8002C0880F991F0A948E
:1004C000E2F7809582238083CE010E94E901CE016C
:1004D0000E944402892F8095881F8827881FDF91FA
:1004E000CF910895CF93DF931F92CDB7DEB720E76A
:1004F000298321E030E0AE014F5F5F4F67E00E944B
:10050000DA010F90DF91CF910895FF920F931F931F
:10051000CF93DF931F92CDB7DEB78C01DC01ED9155
:10052000FC911197429181E090E09C0112960C9011
:10053000129702C0220F331F0A94E2F7242B208364
:100540001396ED91FC91149742919C0115960C9095
:10055000159702C0220F331F0A94E2F7242B208341
:10056000ED91FC91119740819C0112960C9012978D
:1005700002C0220F331F0A94E2F7242B2083139624
:10058000ED91FC9114973081AC0115960C90159764
:1005900002C0440F551F0A94E2F7242F209523230D
:1005A00020832CB520612CBD2CB520642CBD169663
:1005B000ED91FC91179742919C0118960C90189719
:1005C00002C0220F331F0A94E2F7242B20831996CE
:1005D000ED91FC911A9742919C011B960C901B97F0
:1005E00002C0220F331F0A94E2F7242B20831C96AB
:1005F000ED91FC911D9722911E960C9002C0880FE0
:10060000991F0A94E2F78095822380838CB5877FB7
:100610008CBD8CB58B7F8CBD8CB58E7F8CBD8CB525
:100620008D7F8CBD8DB581608DBD8CB58F7D8CBD72
:1006300020E030E040E050E062EEC8010E949F01FF
:1006400020E030E040E050E061EEC8010E949F01F0
:10065000C8010E9472028FE0898321E030E0AE0180
:100660004F5F5F4F60E0C8010E94DA010F2EFFE389
:10067000FF2EF02DF98221E030E0AE014F5F5F4F99
:1006800061E0C8010E94DA01F98221E030E0AE01A8
:100690004F5F5F4F6CE1C8010E94DA0184E08983FB
:1006A00021E030E0AE014F5F5F4F6DE1C8010E9475
:1006B000DA01198221E030E0AE014F5F5F4F62E066
:1006C000C8010E94DA010F90DF91CF911F910F9125
:1006D000FF900895CF93DF931F92CDB7DEB7FC0153
:1006E00097859064998321E030E0AE014F5F5F4FC2
:1006F00067E0CF010E94DA010F90DF91CF9108955A
:10070000EF92FF920F931F93CF93DF938C01EB0136
:100710000E94440299838883C8010E946A038881E9
:10072000998199232CF4CE5BDF4F188280E01AC0A8
:1007300021E030E07E0182E4E80EF11CA70160E6D2
:10074000C8010E94DE01F7012081222351F030E030
:10075000AE014E5F5F4F61E6C8010E949F0181E0DC
:1007600001C081E0DF91CF911F910F91FF90EF9039
:1007700008950F931F93CF93DF938230910510F468
:1007800082E090E0E0913D01F0913E0120E030E018
:10079000A0E0B0E0309719F14081518102811381CE
:1007A00048175907C8F08417950769F4109731F076
:1007B00012960C93129713961C9327C000933D0139
:1007C00010933E0122C02115310519F0421753073D
:1007D00018F49A01BD01EF01DF01F801DBCF21150B
:1007E0003105F9F0281B390B2430310580F48A815A
:1007F0009B816115710521F0FB019383828304C005
:1008000090933E0180933D01FE01329644C0FE016B
:10081000E20FF31F8193919322503109398328838A
:100820003AC020913B0130913C01232B41F42091AF
:1008300002013091030130933C0120933B01209150
:100840000001309101012115310541F42DB73EB76A
:100850004091040150910501241B350BE0913B01AF
:10086000F0913C01E217F307A0F42E1B3F0B281771
:10087000390778F0AC014E5F5F4F2417350748F019
:100880004E0F5F1F50933C0140933B018193919326
:1008900002C0E0E0F0E0CF01DF91CF911F910F9116
:1008A0000895CF93DF93009709F481C0FC0132973C
:1008B00013821282A0913D01B0913E01109781F404
:1008C00020813181820F931F20913B0130913C01A7
:1008D0002817390751F5F0933C01E0933B0167C0BD
:1008E000ED0120E030E0CE17DF0740F44A815B8164
:1008F0009E0141155105F1F0EA01F5CFD383C28382
:1009000040815181840F951FC817D90759F48881F8
:100910009981840F951F0296918380838A819B81A0
:10092000938382832115310529F4F0933E01E093EE
:100930003D013DC0E901FB83EA8349915991C40F10
:10094000D51FEC17FD0761F480819181840F951FFD
:100950000296E90199838883828193819B838A83AC
:10096000E0E0F0E012968D919C911397009719F0BA
:10097000FD01DC01F7CF8D919C9111979D012E5FB8
:100980003F4F820F931F20913B0130913C0128176C
:10099000390769F4309729F410923E0110923D0115
:1009A00002C013821282B0933C01A0933B01DF91FD
:1009B000CF910895FB01DC018D9101908019011008
:0A09C000D9F3990B0895F894FFCFC6
:1009CA0000003F01200001010101014F4E004F4686
:1009DA004600526563656976696E673A20000D0ABA
:1009EA000058204143433A200059204143433A20CA
:0A09FA00005A204143433A20000058
:00000001FF
