S00D000064613454312E7372656399
S11300000C9434000C94A9000C9446000C94460003
S11300100C9446000C9446000C9446000C94460044
S11300200C9446000C9446000C9446000C94460034
S11300300C9446000C9446000C9446000C94460024
S11300400C945D000C9446000C9446000C944600FD
S11300500C9446000C9448000C9446000C94460002
S11300600C9446000C94460011241FBECFEFD8E038
S1130070DEBFCDBF21E0A0E0B1E001C01D92A13000
S1130080B207E1F70E9400010C943A020C940000BC
S11300901F920F920FB60F9211248F93EF93FF9339
S11300A0EAE7F0E0808180618083FF91EF918F9196
S11300B00F900FBE0F901F9018951F920F920FB6BE
S11300C00F9211242F933F934F935F936F937F93DA
S11300D08F939F93AF93BF93EF93FF93EAE7F0E07F
S11300E0808180648083808184FFFDCF809179004A
S11300F08093000180910001823F38F08EEF9CE1F3
S1130100909389008093880013C06091000170E08F
S113011080E090E00E94410123E333E341E052E4B4
S11301200E94A5010E9410017093890060938800C9
S1130130FF91EF91BF91AF919F918F917F916F91BB
S11301405F914F913F912F910F900FBE0F901F9091
S113015018951F920F920FB60F9211242F938F931D
S11301609F93E09A2FE38DE093E0215080409040EC
S1130170E1F700C000004A99FECF9F918F912F9123
S11301800F900FBE0F901F90189517B881E08093C1
S11301907E00ECE7F0E010828081806480838081BF
S11301A080628083EAE7F0E08081806880838081D8
S11301B08062808380818860808380818660808380
S11301C080818064808310927B0078940895E0E8B5
S11301D0F0E0808183688083E1E8F0E080818D61D4
S11301E08083EFE6F0E08081816080830895529AF5
S11301F05A9AE89AE9E6F0E0808182608083089563
S113020082E084B9569A88EA91E6909389008093B3
S113021088000E94C5000E94E7000E94F700FFCFFB
S11302200E94840188F09F5798F0B92F9927B751FD
S1130230B0F0E1F0660F771F881F991F1AF0BA9586
S1130240C9F714C0B13091F00E949E01B1E0089545
S11302500C949E01672F782F8827B85F39F0B93F37
S1130260CCF3869577956795B395D9F73EF4909539
S11302708095709561957F4F8F4F9F4F0895E894B7
S113028009C097FB3EF490958095709561957F4FDA
S11302908F4F9F4F9923A9F0F92F96E9BB27939588
S11302A0F695879577956795B795F111F8CFFAF498
S11302B0BB0F11F460FF1BC06F5F7F4F8F4F9F4FC9
S11302C016C0882311F096E911C0772321F09EE827
S11302D0872F762F05C0662371F096E8862F70E08D
S11302E060E02AF09A95660F771F881FDAF7880F67
S11302F09695879597F9089557FD9058440F551F83
S113030059F05F3F71F04795880F97FB991F61F093
S11303109F3F79F087950895121613061406551F0A
S1130320F2CF4695F1DF08C0161617061806991F76
S1130330F1CF86957105610508940895E894BB276B
S113034066277727CB0197F908950E94B8010C948A
S113035029020E941B0238F00E94220220F09523F9
S113036011F00C9412020C94180211240C949F01A5
S11303700E947C0170F3959FC1F3950F50E0551FC7
S1130380629FF001729FBB27F00DB11D639FAA27E6
S1130390F00DB11DAA1F649F6627B00DA11D661F35
S11303A0829F2227B00DA11D621F739FB00DA11D56
S11303B0621F839FA00D611D221F749F3327A00D10
S11303C0611D231F849F600D211D822F762F6A2FAC
S11303D011249F5750409AF0F1F088234AF0EE0F11
S11303E0FF1FBB1F661F771F881F91505040A9F73E
S11303F09E3F510580F00C9412020C949F015F3FC4
S1130400E4F3983ED4F3869577956795B795F79579
S1130410E7959F5FC1F7FE2B880F911D96958795F1
S113042097F9089597F99F6780E870E060E0089570
S11304309FEF80EC089500240A94161617061806F8
S11304400906089500240A941216130614060506D4
S11304500895092E0394000C11F4882352F0BB0F65
S113046040F4BF2B11F460FF04C06F5F7F4F8F4FC8
S10B04709F4F0895F894FFCF9B
S9030000FC
