:100000000C9434000C943E000C943E000C943E0082
:100010000C943E000C943E000C943E000C943E0068
:100020000C943E000C943E000C943E000C943E0058
:100030000C943E000C943E000C943E000C943E0048
:100040000C943E000C943E000C943E000C943E0038
:100050000C943E000C943E000C943E000C943E0028
:100060000C943E000C943E0011241FBECFEFD8E04C
:10007000DEBFCDBF0E9440000C9460000C940000D5
:10008000229A15B814BC85B5836085BD16BC34E0D2
:1000900080E090E082312AE7920729F425B12327F6
:1000A00025B90196F7CF833224EF920719F485B171
:1000B00085B9EECF0196843224EF920759F7E8CF45
:0400C000F894FFCFE2
:00000001FF
