:100000000C9434000C9440000C943E000C943E0080
:100010000C943E000C943E000C943E000C943E0068
:100020000C943E000C943E000C943E000C943E0058
:100030000C943E000C943E000C943E000C943E0048
:100040000C943E000C943E000C943E000C943E0038
:100050000C943E000C943E000C943E000C943E0028
:100060000C943E000C943E0011241FBECFEFD8E04C
:10007000DEBFCDBF0E9462000C946E000C940000A5
:100080001F920F920FB60F9211242F938F939F936D
:10009000E09A4A990EC02FEF89E698E121508040FE
:1000A0009040E1F700C0000095B184E0892785B950
:1000B00001C015B89F918F912F910F900FBE0F9097
:1000C0001F901895229A52985A9AE89AE9E6F0E019
:1000D00080818160808315B87894FFCFF894FFCF3A
:00000001FF
